:100000000C943E000C945B000C945B000C945B0021
:100010000C945B000C945B000C945B000C945B00F4
:100020000C945B000C94D9000C945B000C945B0066
:100030000C945B000C94F0000C945B000C945B003F
:100040000C9414010C945B000C945B000C945B000A
:100050000C945B000C945B000C945B000C945B00B4
:100060000C945B000C945B000C945B000C945B00A4
:100070000C945B000C945B000C945B0011241FBE7D
:10008000CFEFD8E0DEBFCDBF11E0A0E0B1E0E8E007
:10009000F7E002C005900D92A831B107D9F721E031
:1000A000A8E1B1E001C01D92AB31B207E1F70E94B7
:1000B000F2010C9482030C940000089520918400B6
:1000C00030918500DC0119963C932E9318971E966B
:1000D000ED91FC911F9780818D7F80830895FC01B5
:1000E00084E091E0918380835383428375836483AA
:1000F00011861086178216820895DC01ED91FC911D
:100100000280F381E02D0994CF92DF92EF92FF926B
:10011000CF93DF93EC016A017B018A819B81009779
:1001200029F0019739F487E090E002C084E89EE16D
:100130009F838E836E817F81072E000C880B990B25
:100140000E948902A70196010E94ED020E945102BD
:100150007F836E83DF91CF91FF90EF90DF90CF9000
:100160000895CF93DF93EC010E94840019861886CE
:10017000E881F9810280F381E02DCE01DF91CF91FA
:100180000994CF93DF93EC0140E050E060E87FE317
:100190000E94840019861886E881F9810280F38123
:1001A000E02DCE01DF91CF910994109A0895109817
:1001B00008951F920F920FB60F9211248F939F9361
:1001C0008091190190911A01019690931A018093E0
:1001D00019019F918F910F900FBE0F901F9018954E
:1001E0001F920F920FB60F9211242F933F934F93AC
:1001F0005F936F937F938F939F93AF93BF93EF938F
:10020000FF930E94D900FF91EF91BF91AF919F9111
:100210008F917F916F915F914F913F912F910F90AF
:100220000FBE0F901F9018951F920F920FB60F924E
:1002300011242F933F934F935F936F937F938F93EB
:100240009F93AF93BF93EF93FF930E94D900FF91C9
:10025000EF91BF91AF919F918F917F916F915F913E
:100260004F913F912F910F900FBE0F901F901895B7
:10027000FC01F894A089B1898085918511969C93A1
:100280008E93A289B3898681978111969C938E93D0
:10029000A485B5858C918D608C93A485B5858C9152
:1002A0008D7E8C930684F785E02D8081826080832B
:1002B00078940895FC01A089B1898D919C919187D2
:1002C00080870684F785E02D80818D7F8083089567
:1002D000CF93DF93EC010E946F008CE091E0998353
:1002E000888384E890E0998B888B88E890E09B8BEA
:1002F0008A8B80E890E09B878A8781E890E09D87E1
:100300008C878FE690E09F878E87DF91CF9108954D
:10031000FC01F894A089B18980858C93A289B38966
:1003200086818C93A285B3858C9182608C93848125
:100330009581A485B585892B19F48C91856002C0BF
:100340008C9187608C930684F785E02D8081826094
:10035000808378940895FC01A089B1898C9190E004
:10036000918780870684F785E02D80818D7F80834B
:100370000895CF93DF93EC010E946F0084E191E038
:10038000998388838C819D810097A9F0029739F524
:1003900082EB90E0998B888B83EB90E09B8B8A8B30
:1003A00080EB90E09B878A8781EB90E09D878C872C
:1003B00080E790E012C086E490E0998B888B87E418
:1003C00090E09B8B8A8B84E490E09B878A8785E40E
:1003D00090E09D878C878EE690E09F878E87DF91E7
:1003E000CF910895CF93DF93CDB7DEB764970FB663
:1003F000F894DEBF0FBECDBF83E081B940E050E08E
:1004000061E070E0CE0101960E946801CE01019684
:100410000E94C1000E94D7008091190190911A0199
:100420000297D4F30E94D500CE0101960E945A0192
:10043000CE0101960E947D000E94D5008091190195
:1004400090911A010697D4F310921A011092190193
:10045000CE0101960E94C1000E94D700809119012F
:1004600090911A010397D4F310921A011092190176
:10047000CE0101960E94C1000E94D5008091190111
:1004800090911A010397D4F30E94D70080E090E086
:1004900064960FB6F894DEBF0FBECDBFDF91CF914B
:1004A00008950E9458026894B1110C94E7020895CF
:1004B0000E94CC0288F09F5798F0B92F9927B75126
:1004C000B0F0E1F0660F771F881F991F1AF0BA95F8
:1004D000C9F714C0B13091F00E94E602B1E008956E
:1004E0000C94E602672F782F8827B85F39F0B93F60
:1004F000CCF3869577956795B395D9F73EF49095AB
:100500008095709561957F4F8F4F9F4F0895E89428
:1005100009C097FB3EF490958095709561957F4F4B
:100520008F4F9F4F9923A9F0F92F96E9BB279395F9
:10053000F695879577956795B795F111F8CFFAF409
:10054000BB0F11F460FF1BC06F5F7F4F8F4F9F4F3A
:1005500016C0882311F096E911C0772321F09EE898
:10056000872F762F05C0662371F096E8862F70E0FE
:1005700060E02AF09A95660F771F881FDAF7880FD8
:100580009695879597F9089557FD9058440F551FF4
:1005900059F05F3F71F04795880F97FB991F61F005
:1005A0009F3F79F087950895121613061406551F7C
:1005B000F2CF4695F1DF08C0161617061806991FE8
:1005C000F1CF86957105610508940895E894BB27DD
:1005D00066277727CB0197F908950E9400030C94B2
:1005E00071030E94630338F00E946A0320F0952390
:1005F00011F00C945A030C94600311240C94E7023C
:100600000E94C40270F3959FC1F3950F50E0551FEF
:10061000629FF001729FBB27F00DB11D639FAA2757
:10062000F00DB11DAA1F649F6627B00DA11D661FA6
:10063000829F2227B00DA11D621F739FB00DA11DC7
:10064000621F839FA00D611D221F749F3327A00D81
:10065000611D231F849F600D211D822F762F6A2F1D
:1006600011249F5750409AF0F1F088234AF0EE0F82
:10067000FF1FBB1F661F771F881F91505040A9F7AF
:100680009E3F510580F00C945A030C94E7025F3FA3
:10069000E4F3983ED4F3869577956795B795F795EB
:1006A000E7959F5FC1F7FE2B880F911D9695879563
:1006B00097F9089597F99F6780E870E060E00895E2
:1006C0009FEF80EC089500240A941616170618066A
:1006D0000906089500240A94121613061406050646
:1006E0000895092E0394000C11F4882352F0BB0FD7
:1006F00040F4BF2B11F460FF04C06F5F7F4F8F4F3A
:080700009F4F0895F894FFCF0C
:10070800000000005E005D00000000005A01380192
:0807180000000000AB018801A4
:00000001FF
