:100000000C943E000C94BA000C9450000C945000D8
:100010000C9450000C9450000C9450000C94500020
:100020000C9450000C9450000C9450000C94500010
:100030000C9450000C9450000C9450000C94500000
:100040000C9450000C9450000C9450000C945000F0
:100050000C9450000C9450000C9450000C945000E0
:100060000C9450000C9450000C9450000C945000D0
:100070000C9450000C9450000C94500011241FBE9E
:10008000CFEFD8E0DEBFCDBF21E0A0E0B1E001C0FE
:100090001D92A130B207E1F70E94ED000C940A0115
:1000A0000C940000F894FC018081918181309105CD
:1000B00039F08230910531F0892B29F4EA9803C098
:1000C000E89801C0E99878940895FC0180819181B5
:1000D0008130910541F08230910541F0892B41F446
:1000E0002298EA9A08955298E89A08955398E99ABE
:1000F0000895FC018281938181309105F9F01CF40F
:10010000892B51F008958230910579F00397D9F445
:1001100080916900837F15C080916900846080931D
:10012000690080916900877F0CC0809169008B7F96
:100130008093690080916900886003C080916900A4
:10014000836F809369000895CF93DF93EC01F89457
:100150000E946500CE010E9479007894DF91CF91D2
:10016000089589B182FB882780F90895109A08952F
:10017000109808951F920F920FB60F9211242F938B
:100180003F934F935F936F937F938F939F93AF931F
:10019000BF93EF93FF938FE59AEE0197F1F700C0BD
:1001A00000000E94B100882321F081E080930001CB
:1001B00002C010920001E09AFF91EF91BF91AF91C0
:1001C0009F918F917F916F915F914F913F912F916F
:1001D0000F900FBE0F901F901895CF93DF9300D014
:1001E00000D0CDB7DEB781B1836081B981E090E006
:1001F0009A8389831C821B82CE0101960E94A400EF
:1002000080910001882319F00E94B600F9CF0E9466
:08021000B800F6CFF894FFCF0F
:00000001FF
